{"abi":[{"type":"constructor","inputs":[{"name":"initialOwner","type":"address","internalType":"address"}],"stateMutability":"nonpayable"},{"type":"function","name":"approve","inputs":[{"name":"to","type":"address","internalType":"address"},{"name":"tokenId","type":"uint256","internalType":"uint256"}],"outputs":[],"stateMutability":"nonpayable"},{"type":"function","name":"balanceOf","inputs":[{"name":"owner","type":"address","internalType":"address"}],"outputs":[{"name":"","type":"uint256","internalType":"uint256"}],"stateMutability":"view"},{"type":"function","name":"getApproved","inputs":[{"name":"tokenId","type":"uint256","internalType":"uint256"}],"outputs":[{"name":"","type":"address","internalType":"address"}],"stateMutability":"view"},{"type":"function","name":"getTrophyData","inputs":[{"name":"tokenId","type":"uint256","internalType":"uint256"}],"outputs":[{"name":"season","type":"uint256","internalType":"uint256"},{"name":"rank","type":"uint8","internalType":"uint8"}],"stateMutability":"view"},{"type":"function","name":"isApprovedForAll","inputs":[{"name":"owner","type":"address","internalType":"address"},{"name":"operator","type":"address","internalType":"address"}],"outputs":[{"name":"","type":"bool","internalType":"bool"}],"stateMutability":"view"},{"type":"function","name":"mintTrophy","inputs":[{"name":"player","type":"address","internalType":"address"},{"name":"season","type":"uint256","internalType":"uint256"},{"name":"rank","type":"uint8","internalType":"uint8"}],"outputs":[{"name":"tokenId","type":"uint256","internalType":"uint256"}],"stateMutability":"nonpayable"},{"type":"function","name":"name","inputs":[],"outputs":[{"name":"","type":"string","internalType":"string"}],"stateMutability":"view"},{"type":"function","name":"owner","inputs":[],"outputs":[{"name":"","type":"address","internalType":"address"}],"stateMutability":"view"},{"type":"function","name":"ownerOf","inputs":[{"name":"tokenId","type":"uint256","internalType":"uint256"}],"outputs":[{"name":"","type":"address","internalType":"address"}],"stateMutability":"view"},{"type":"function","name":"renounceOwnership","inputs":[],"outputs":[],"stateMutability":"nonpayable"},{"type":"function","name":"safeTransferFrom","inputs":[{"name":"from","type":"address","internalType":"address"},{"name":"to","type":"address","internalType":"address"},{"name":"tokenId","type":"uint256","internalType":"uint256"}],"outputs":[],"stateMutability":"nonpayable"},{"type":"function","name":"safeTransferFrom","inputs":[{"name":"from","type":"address","internalType":"address"},{"name":"to","type":"address","internalType":"address"},{"name":"tokenId","type":"uint256","internalType":"uint256"},{"name":"data","type":"bytes","internalType":"bytes"}],"outputs":[],"stateMutability":"nonpayable"},{"type":"function","name":"setApprovalForAll","inputs":[{"name":"operator","type":"address","internalType":"address"},{"name":"approved","type":"bool","internalType":"bool"}],"outputs":[],"stateMutability":"nonpayable"},{"type":"function","name":"supportsInterface","inputs":[{"name":"interfaceId","type":"bytes4","internalType":"bytes4"}],"outputs":[{"name":"","type":"bool","internalType":"bool"}],"stateMutability":"view"},{"type":"function","name":"symbol","inputs":[],"outputs":[{"name":"","type":"string","internalType":"string"}],"stateMutability":"view"},{"type":"function","name":"tokenByIndex","inputs":[{"name":"index","type":"uint256","internalType":"uint256"}],"outputs":[{"name":"","type":"uint256","internalType":"uint256"}],"stateMutability":"view"},{"type":"function","name":"tokenOfOwnerByIndex","inputs":[{"name":"owner","type":"address","internalType":"address"},{"name":"index","type":"uint256","internalType":"uint256"}],"outputs":[{"name":"","type":"uint256","internalType":"uint256"}],"stateMutability":"view"},{"type":"function","name":"tokenURI","inputs":[{"name":"tokenId","type":"uint256","internalType":"uint256"}],"outputs":[{"name":"","type":"string","internalType":"string"}],"stateMutability":"view"},{"type":"function","name":"totalSupply","inputs":[],"outputs":[{"name":"","type":"uint256","internalType":"uint256"}],"stateMutability":"view"},{"type":"function","name":"transferFrom","inputs":[{"name":"from","type":"address","internalType":"address"},{"name":"to","type":"address","internalType":"address"},{"name":"tokenId","type":"uint256","internalType":"uint256"}],"outputs":[],"stateMutability":"nonpayable"},{"type":"function","name":"transferOwnership","inputs":[{"name":"newOwner","type":"address","internalType":"address"}],"outputs":[],"stateMutability":"nonpayable"},{"type":"event","name":"Approval","inputs":[{"name":"owner","type":"address","indexed":true,"internalType":"address"},{"name":"approved","type":"address","indexed":true,"internalType":"address"},{"name":"tokenId","type":"uint256","indexed":true,"internalType":"uint256"}],"anonymous":false},{"type":"event","name":"ApprovalForAll","inputs":[{"name":"owner","type":"address","indexed":true,"internalType":"address"},{"name":"operator","type":"address","indexed":true,"internalType":"address"},{"name":"approved","type":"bool","indexed":false,"internalType":"bool"}],"anonymous":false},{"type":"event","name":"OwnershipTransferred","inputs":[{"name":"previousOwner","type":"address","indexed":true,"internalType":"address"},{"name":"newOwner","type":"address","indexed":true,"internalType":"address"}],"anonymous":false},{"type":"event","name":"Transfer","inputs":[{"name":"from","type":"address","indexed":true,"internalType":"address"},{"name":"to","type":"address","indexed":true,"internalType":"address"},{"name":"tokenId","type":"uint256","indexed":true,"internalType":"uint256"}],"anonymous":false},{"type":"event","name":"TrophyMinted","inputs":[{"name":"player","type":"address","indexed":true,"internalType":"address"},{"name":"tokenId","type":"uint256","indexed":true,"internalType":"uint256"},{"name":"season","type":"uint256","indexed":false,"internalType":"uint256"},{"name":"rank","type":"uint8","indexed":false,"internalType":"uint8"}],"anonymous":false},{"type":"error","name":"ERC721EnumerableForbiddenBatchMint","inputs":[]},{"type":"error","name":"ERC721IncorrectOwner","inputs":[{"name":"sender","type":"address","internalType":"address"},{"name":"tokenId","type":"uint256","internalType":"uint256"},{"name":"owner","type":"address","internalType":"address"}]},{"type":"error","name":"ERC721InsufficientApproval","inputs":[{"name":"operator","type":"address","internalType":"address"},{"name":"tokenId","type":"uint256","internalType":"uint256"}]},{"type":"error","name":"ERC721InvalidApprover","inputs":[{"name":"approver","type":"address","internalType":"address"}]},{"type":"error","name":"ERC721InvalidOperator","inputs":[{"name":"operator","type":"address","internalType":"address"}]},{"type":"error","name":"ERC721InvalidOwner","inputs":[{"name":"owner","type":"address","internalType":"address"}]},{"type":"error","name":"ERC721InvalidReceiver","inputs":[{"name":"receiver","type":"address","internalType":"address"}]},{"type":"error","name":"ERC721InvalidSender","inputs":[{"name":"sender","type":"address","internalType":"address"}]},{"type":"error","name":"ERC721NonexistentToken","inputs":[{"name":"tokenId","type":"uint256","internalType":"uint256"}]},{"type":"error","name":"ERC721OutOfBoundsIndex","inputs":[{"name":"owner","type":"address","internalType":"address"},{"name":"index","type":"uint256","internalType":"uint256"}]},{"type":"error","name":"OwnableInvalidOwner","inputs":[{"name":"owner","type":"address","internalType":"address"}]},{"type":"error","name":"OwnableUnauthorizedAccount","inputs":[{"name":"account","type":"address","internalType":"address"}]}],"bytecode":{"object":"0x608060405234801561000f575f5ffd5b5060405161353d38038061353d83398181016040528101906100319190610266565b806040518060400160405280600c81526020017f536561736f6e54726f70687900000000000000000000000000000000000000008152506040518060400160405280600481526020017f5354524f00000000000000000000000000000000000000000000000000000000815250815f90816100ac91906104ce565b5080600190816100bc91906104ce565b5050505f73ffffffffffffffffffffffffffffffffffffffff168173ffffffffffffffffffffffffffffffffffffffff160361012f575f6040517f1e4fbdf700000000000000000000000000000000000000000000000000000000815260040161012691906105ac565b60405180910390fd5b61013e8161014560201b60201c565b50506105c5565b5f600a5f9054906101000a900473ffffffffffffffffffffffffffffffffffffffff16905081600a5f6101000a81548173ffffffffffffffffffffffffffffffffffffffff021916908373ffffffffffffffffffffffffffffffffffffffff1602179055508173ffffffffffffffffffffffffffffffffffffffff168173ffffffffffffffffffffffffffffffffffffffff167f8be0079c531659141344cd1fd0a4f28419497f9722a3daafe3b4186f6b6457e060405160405180910390a35050565b5f5ffd5b5f73ffffffffffffffffffffffffffffffffffffffff82169050919050565b5f6102358261020c565b9050919050565b6102458161022b565b811461024f575f5ffd5b50565b5f815190506102608161023c565b92915050565b5f6020828403121561027b5761027a610208565b5b5f61028884828501610252565b91505092915050565b5f81519050919050565b7f4e487b71000000000000000000000000000000000000000000000000000000005f52604160045260245ffd5b7f4e487b71000000000000000000000000000000000000000000000000000000005f52602260045260245ffd5b5f600282049050600182168061030c57607f821691505b60208210810361031f5761031e6102c8565b5b50919050565b5f819050815f5260205f209050919050565b5f6020601f8301049050919050565b5f82821b905092915050565b5f600883026103817fffffffffffffffffffffffffffffffffffffffffffffffffffffffffffffffff82610346565b61038b8683610346565b95508019841693508086168417925050509392505050565b5f819050919050565b5f819050919050565b5f6103cf6103ca6103c5846103a3565b6103ac565b6103a3565b9050919050565b5f819050919050565b6103e8836103b5565b6103fc6103f4826103d6565b848454610352565b825550505050565b5f5f905090565b610413610404565b61041e8184846103df565b505050565b5b81811015610441576104365f8261040b565b600181019050610424565b5050565b601f8211156104865761045781610325565b61046084610337565b8101602085101561046f578190505b61048361047b85610337565b830182610423565b50505b505050565b5f82821c905092915050565b5f6104a65f198460080261048b565b1980831691505092915050565b5f6104be8383610497565b9150826002028217905092915050565b6104d782610291565b67ffffffffffffffff8111156104f0576104ef61029b565b5b6104fa82546102f5565b610505828285610445565b5f60209050601f831160018114610536575f8415610524578287015190505b61052e85826104b3565b865550610595565b601f19841661054486610325565b5f5b8281101561056b57848901518255600182019150602085019450602081019050610546565b868310156105885784890151610584601f891682610497565b8355505b6001600288020188555050505b505050505050565b6105a68161022b565b82525050565b5f6020820190506105bf5f83018461059d565b92915050565b612f6b806105d25f395ff3fe608060405234801561000f575f5ffd5b5060043610610135575f3560e01c80634f6ccce7116100b657806395d89b411161007a57806395d89b4114610372578063a22cb46514610390578063b88d4fde146103ac578063c87b56dd146103c8578063e985e9c5146103f8578063f2fde38b1461042857610135565b80634f6ccce7146102ba5780636352211e146102ea57806370a082311461031a578063715018a61461034a5780638da5cb5b1461035457610135565b806318160ddd116100fd57806318160ddd1461020357806323b872dd14610221578063286a73ea1461023d5780632f745c591461026e57806342842e0e1461029e57610135565b806301ffc9a71461013957806306fdde0314610169578063081812fc14610187578063095ea7b3146101b75780631307d50b146101d3575b5f5ffd5b610153600480360381019061014e9190612273565b610444565b60405161016091906122b8565b60405180910390f35b6101716104bd565b60405161017e9190612341565b60405180910390f35b6101a1600480360381019061019c9190612394565b61054c565b6040516101ae91906123fe565b60405180910390f35b6101d160048036038101906101cc9190612441565b610567565b005b6101ed60048036038101906101e891906124b5565b61057d565b6040516101fa9190612514565b60405180910390f35b61020b610654565b6040516102189190612514565b60405180910390f35b61023b6004803603810190610236919061252d565b610660565b005b61025760048036038101906102529190612394565b61075f565b60405161026592919061258c565b60405180910390f35b61028860048036038101906102839190612441565b61082e565b6040516102959190612514565b60405180910390f35b6102b860048036038101906102b3919061252d565b6108d2565b005b6102d460048036038101906102cf9190612394565b6108f1565b6040516102e19190612514565b60405180910390f35b61030460048036038101906102ff9190612394565b610963565b60405161031191906123fe565b60405180910390f35b610334600480360381019061032f91906125b3565b610974565b6040516103419190612514565b60405180910390f35b610352610a2a565b005b61035c610a3d565b60405161036991906123fe565b60405180910390f35b61037a610a65565b6040516103879190612341565b60405180910390f35b6103aa60048036038101906103a59190612608565b610af5565b005b6103c660048036038101906103c19190612772565b610b0b565b005b6103e260048036038101906103dd9190612394565b610b30565b6040516103ef9190612341565b60405180910390f35b610412600480360381019061040d91906127f2565b610ca5565b60405161041f91906122b8565b60405180910390f35b610442600480360381019061043d91906125b3565b610d33565b005b5f7f780e9d63000000000000000000000000000000000000000000000000000000007bffffffffffffffffffffffffffffffffffffffffffffffffffffffff1916827bffffffffffffffffffffffffffffffffffffffffffffffffffffffff191614806104b657506104b582610db7565b5b9050919050565b60605f80546104cb9061285d565b80601f01602080910402602001604051908101604052809291908181526020018280546104f79061285d565b80156105425780601f1061051957610100808354040283529160200191610542565b820191905f5260205f20905b81548152906001019060200180831161052557829003601f168201915b5050505050905090565b5f61055682610e98565b5061056082610f1e565b9050919050565b6105798282610574610f57565b610f5e565b5050565b5f610586610f70565b600c5f815480929190610598906128ba565b91905055905060405180604001604052808481526020018360ff16815250600b5f8381526020019081526020015f205f820151815f01556020820151816001015f6101000a81548160ff021916908360ff1602179055509050506105fc8482610ff7565b808473ffffffffffffffffffffffffffffffffffffffff167f8d3da1133b08bf1be301034cde4cf86d75bbd23e57c308a3d0d6fbc2c874c45a858560405161064592919061258c565b60405180910390a39392505050565b5f600880549050905090565b5f73ffffffffffffffffffffffffffffffffffffffff168273ffffffffffffffffffffffffffffffffffffffff16036106d0575f6040517f64a0ae920000000000000000000000000000000000000000000000000000000081526004016106c791906123fe565b60405180910390fd5b5f6106e383836106de610f57565b611014565b90508373ffffffffffffffffffffffffffffffffffffffff168173ffffffffffffffffffffffffffffffffffffffff1614610759578382826040517f64283d7b00000000000000000000000000000000000000000000000000000000815260040161075093929190612901565b60405180910390fd5b50505050565b5f5f5f73ffffffffffffffffffffffffffffffffffffffff166107818461112e565b73ffffffffffffffffffffffffffffffffffffffff16036107d7576040517f08c379a00000000000000000000000000000000000000000000000000000000081526004016107ce90612980565b60405180910390fd5b5f600b5f8581526020019081526020015f206040518060400160405290815f8201548152602001600182015f9054906101000a900460ff1660ff1660ff16815250509050805f015181602001519250925050915091565b5f61083883610974565b821061087d5782826040517fa57d13dc00000000000000000000000000000000000000000000000000000000815260040161087492919061299e565b60405180910390fd5b60065f8473ffffffffffffffffffffffffffffffffffffffff1673ffffffffffffffffffffffffffffffffffffffff1681526020019081526020015f205f8381526020019081526020015f2054905092915050565b6108ec83838360405180602001604052805f815250610b0b565b505050565b5f6108fa610654565b821061093f575f826040517fa57d13dc00000000000000000000000000000000000000000000000000000000815260040161093692919061299e565b60405180910390fd5b60088281548110610953576109526129c5565b5b905f5260205f2001549050919050565b5f61096d82610e98565b9050919050565b5f5f73ffffffffffffffffffffffffffffffffffffffff168273ffffffffffffffffffffffffffffffffffffffff16036109e5575f6040517f89c62b640000000000000000000000000000000000000000000000000000000081526004016109dc91906123fe565b60405180910390fd5b60035f8373ffffffffffffffffffffffffffffffffffffffff1673ffffffffffffffffffffffffffffffffffffffff1681526020019081526020015f20549050919050565b610a32610f70565b610a3b5f611167565b565b5f600a5f9054906101000a900473ffffffffffffffffffffffffffffffffffffffff16905090565b606060018054610a749061285d565b80601f0160208091040260200160405190810160405280929190818152602001828054610aa09061285d565b8015610aeb5780601f10610ac257610100808354040283529160200191610aeb565b820191905f5260205f20905b815481529060010190602001808311610ace57829003601f168201915b5050505050905090565b610b07610b00610f57565b838361122a565b5050565b610b16848484610660565b610b2a610b21610f57565b85858585611403565b50505050565b60605f73ffffffffffffffffffffffffffffffffffffffff16610b528361112e565b73ffffffffffffffffffffffffffffffffffffffff1603610ba8576040517f08c379a0000000000000000000000000000000000000000000000000000000008152600401610b9f90612980565b60405180910390fd5b5f600b5f8481526020019081526020015f206040518060400160405290815f8201548152602001600182015f9054906101000a900460ff1660ff1660ff168152505090505f610bfa82602001516115af565b90505f610c09835f01516116c7565b610c19846020015160ff166116c7565b83610c2a866020015160ff166116c7565b85610c37885f01516116c7565b610c43895f01516116c7565b610c538a6020015160ff166116c7565b604051602001610c6a989796959493929190612ca4565b604051602081830303815290604052905080604051602001610c8c9190612dac565b6040516020818303038152906040529350505050919050565b5f60055f8473ffffffffffffffffffffffffffffffffffffffff1673ffffffffffffffffffffffffffffffffffffffff1681526020019081526020015f205f8373ffffffffffffffffffffffffffffffffffffffff1673ffffffffffffffffffffffffffffffffffffffff1681526020019081526020015f205f9054906101000a900460ff16905092915050565b610d3b610f70565b5f73ffffffffffffffffffffffffffffffffffffffff168173ffffffffffffffffffffffffffffffffffffffff1603610dab575f6040517f1e4fbdf7000000000000000000000000000000000000000000000000000000008152600401610da291906123fe565b60405180910390fd5b610db481611167565b50565b5f7f80ac58cd000000000000000000000000000000000000000000000000000000007bffffffffffffffffffffffffffffffffffffffffffffffffffffffff1916827bffffffffffffffffffffffffffffffffffffffffffffffffffffffff19161480610e8157507f5b5e139f000000000000000000000000000000000000000000000000000000007bffffffffffffffffffffffffffffffffffffffffffffffffffffffff1916827bffffffffffffffffffffffffffffffffffffffffffffffffffffffff1916145b80610e915750610e9082611791565b5b9050919050565b5f5f610ea38361112e565b90505f73ffffffffffffffffffffffffffffffffffffffff168173ffffffffffffffffffffffffffffffffffffffff1603610f1557826040517f7e273289000000000000000000000000000000000000000000000000000000008152600401610f0c9190612514565b60405180910390fd5b80915050919050565b5f60045f8381526020019081526020015f205f9054906101000a900473ffffffffffffffffffffffffffffffffffffffff169050919050565b5f33905090565b610f6b83838360016117fa565b505050565b610f78610f57565b73ffffffffffffffffffffffffffffffffffffffff16610f96610a3d565b73ffffffffffffffffffffffffffffffffffffffff1614610ff557610fb9610f57565b6040517f118cdaa7000000000000000000000000000000000000000000000000000000008152600401610fec91906123fe565b60405180910390fd5b565b611010828260405180602001604052805f8152506119b9565b5050565b5f5f6110218585856119dc565b90505f73ffffffffffffffffffffffffffffffffffffffff168173ffffffffffffffffffffffffffffffffffffffff16036110645761105f84611be7565b6110a3565b8473ffffffffffffffffffffffffffffffffffffffff168173ffffffffffffffffffffffffffffffffffffffff16146110a2576110a18185611c2b565b5b5b5f73ffffffffffffffffffffffffffffffffffffffff168573ffffffffffffffffffffffffffffffffffffffff16036110e4576110df84611d02565b611123565b8473ffffffffffffffffffffffffffffffffffffffff168173ffffffffffffffffffffffffffffffffffffffff1614611122576111218585611dc2565b5b5b809150509392505050565b5f60025f8381526020019081526020015f205f9054906101000a900473ffffffffffffffffffffffffffffffffffffffff169050919050565b5f600a5f9054906101000a900473ffffffffffffffffffffffffffffffffffffffff16905081600a5f6101000a81548173ffffffffffffffffffffffffffffffffffffffff021916908373ffffffffffffffffffffffffffffffffffffffff1602179055508173ffffffffffffffffffffffffffffffffffffffff168173ffffffffffffffffffffffffffffffffffffffff167f8be0079c531659141344cd1fd0a4f28419497f9722a3daafe3b4186f6b6457e060405160405180910390a35050565b5f73ffffffffffffffffffffffffffffffffffffffff168373ffffffffffffffffffffffffffffffffffffffff160361129a575f6040517fa9fbf51f00000000000000000000000000000000000000000000000000000000815260040161129191906123fe565b60405180910390fd5b5f73ffffffffffffffffffffffffffffffffffffffff168273ffffffffffffffffffffffffffffffffffffffff160361130a57816040517f5b08ba1800000000000000000000000000000000000000000000000000000000815260040161130191906123fe565b60405180910390fd5b8060055f8573ffffffffffffffffffffffffffffffffffffffff1673ffffffffffffffffffffffffffffffffffffffff1681526020019081526020015f205f8473ffffffffffffffffffffffffffffffffffffffff1673ffffffffffffffffffffffffffffffffffffffff1681526020019081526020015f205f6101000a81548160ff0219169083151502179055508173ffffffffffffffffffffffffffffffffffffffff168373ffffffffffffffffffffffffffffffffffffffff167f17307eab39ab6107e8899845ad3d59bd9653f200f220920489ca2b5937696c31836040516113f691906122b8565b60405180910390a3505050565b5f8373ffffffffffffffffffffffffffffffffffffffff163b11156115a8578273ffffffffffffffffffffffffffffffffffffffff1663150b7a02868685856040518563ffffffff1660e01b81526004016114619493929190612e1f565b6020604051808303815f875af192505050801561149c57506040513d601f19601f820116820180604052508101906114999190612e7d565b60015b61151d573d805f81146114ca576040519150601f19603f3d011682016040523d82523d5f602084013e6114cf565b606091505b505f81510361151557836040517f64a0ae9200000000000000000000000000000000000000000000000000000000815260040161150c91906123fe565b60405180910390fd5b805160208201fd5b63150b7a0260e01b7bffffffffffffffffffffffffffffffffffffffffffffffffffffffff1916817bffffffffffffffffffffffffffffffffffffffffffffffffffffffff1916146115a657836040517f64a0ae9200000000000000000000000000000000000000000000000000000000815260040161159d91906123fe565b60405180910390fd5b505b5050505050565b606060018260ff16036115f9576040518060400160405280600281526020017f737400000000000000000000000000000000000000000000000000000000000081525090506116c2565b60028260ff1603611641576040518060400160405280600281526020017f6e6400000000000000000000000000000000000000000000000000000000000081525090506116c2565b60038260ff1603611689576040518060400160405280600281526020017f726400000000000000000000000000000000000000000000000000000000000081525090506116c2565b6040518060400160405280600281526020017f746800000000000000000000000000000000000000000000000000000000000081525090505b919050565b60605f60016116d584611e46565b0190505f8167ffffffffffffffff8111156116f3576116f261264e565b5b6040519080825280601f01601f1916602001820160405280156117255781602001600182028036833780820191505090505b5090505f82602083010190505b600115611786578080600190039150507f3031323334353637383961626364656600000000000000000000000000000000600a86061a8153600a858161177b5761177a612ea8565b5b0494505f8503611732575b819350505050919050565b5f7f01ffc9a7000000000000000000000000000000000000000000000000000000007bffffffffffffffffffffffffffffffffffffffffffffffffffffffff1916827bffffffffffffffffffffffffffffffffffffffffffffffffffffffff1916149050919050565b808061183257505f73ffffffffffffffffffffffffffffffffffffffff168273ffffffffffffffffffffffffffffffffffffffff1614155b15611964575f61184184610e98565b90505f73ffffffffffffffffffffffffffffffffffffffff168373ffffffffffffffffffffffffffffffffffffffff16141580156118ab57508273ffffffffffffffffffffffffffffffffffffffff168173ffffffffffffffffffffffffffffffffffffffff1614155b80156118be57506118bc8184610ca5565b155b1561190057826040517fa9fbf51f0000000000000000000000000000000000000000000000000000000081526004016118f791906123fe565b60405180910390fd5b811561196257838573ffffffffffffffffffffffffffffffffffffffff168273ffffffffffffffffffffffffffffffffffffffff167f8c5be1e5ebec7d5bd14f71427d1e84f3dd0314c0f7b2291e5b200ac8c7c3b92560405160405180910390a45b505b8360045f8581526020019081526020015f205f6101000a81548173ffffffffffffffffffffffffffffffffffffffff021916908373ffffffffffffffffffffffffffffffffffffffff16021790555050505050565b6119c38383611f97565b6119d76119ce610f57565b5f858585611403565b505050565b5f5f6119e78461112e565b90505f73ffffffffffffffffffffffffffffffffffffffff168373ffffffffffffffffffffffffffffffffffffffff1614611a2857611a2781848661208a565b5b5f73ffffffffffffffffffffffffffffffffffffffff168173ffffffffffffffffffffffffffffffffffffffff1614611ab357611a675f855f5f6117fa565b600160035f8373ffffffffffffffffffffffffffffffffffffffff1673ffffffffffffffffffffffffffffffffffffffff1681526020019081526020015f205f82825403925050819055505b5f73ffffffffffffffffffffffffffffffffffffffff168573ffffffffffffffffffffffffffffffffffffffff1614611b3257600160035f8773ffffffffffffffffffffffffffffffffffffffff1673ffffffffffffffffffffffffffffffffffffffff1681526020019081526020015f205f82825401925050819055505b8460025f8681526020019081526020015f205f6101000a81548173ffffffffffffffffffffffffffffffffffffffff021916908373ffffffffffffffffffffffffffffffffffffffff160217905550838573ffffffffffffffffffffffffffffffffffffffff168273ffffffffffffffffffffffffffffffffffffffff167fddf252ad1be2c89b69c2b068fc378daa952ba7f163c4a11628f55a4df523b3ef60405160405180910390a4809150509392505050565b60088054905060095f8381526020019081526020015f2081905550600881908060018154018082558091505060019003905f5260205f20015f909190919091505550565b5f611c3583610974565b90505f60075f8481526020019081526020015f205490505f60065f8673ffffffffffffffffffffffffffffffffffffffff1673ffffffffffffffffffffffffffffffffffffffff1681526020019081526020015f209050828214611cd4575f815f8581526020019081526020015f2054905080825f8581526020019081526020015f20819055508260075f8381526020019081526020015f2081905550505b60075f8581526020019081526020015f205f9055805f8481526020019081526020015f205f90555050505050565b5f6001600880549050611d159190612ed5565b90505f60095f8481526020019081526020015f205490505f60088381548110611d4157611d406129c5565b5b905f5260205f20015490508060088381548110611d6157611d606129c5565b5b905f5260205f2001819055508160095f8381526020019081526020015f208190555060095f8581526020019081526020015f205f90556008805480611da957611da8612f08565b5b600190038181905f5260205f20015f9055905550505050565b5f6001611dce84610974565b611dd89190612ed5565b90508160065f8573ffffffffffffffffffffffffffffffffffffffff1673ffffffffffffffffffffffffffffffffffffffff1681526020019081526020015f205f8381526020019081526020015f20819055508060075f8481526020019081526020015f2081905550505050565b5f5f5f90507a184f03e93ff9f4daa797ed6e38ed64bf6a1f0100000000000000008310611ea2577a184f03e93ff9f4daa797ed6e38ed64bf6a1f0100000000000000008381611e9857611e97612ea8565b5b0492506040810190505b6d04ee2d6d415b85acef81000000008310611edf576d04ee2d6d415b85acef81000000008381611ed557611ed4612ea8565b5b0492506020810190505b662386f26fc100008310611f0e57662386f26fc100008381611f0457611f03612ea8565b5b0492506010810190505b6305f5e1008310611f37576305f5e1008381611f2d57611f2c612ea8565b5b0492506008810190505b6127108310611f5c576127108381611f5257611f51612ea8565b5b0492506004810190505b60648310611f7f5760648381611f7557611f74612ea8565b5b0492506002810190505b600a8310611f8e576001810190505b80915050919050565b5f73ffffffffffffffffffffffffffffffffffffffff168273ffffffffffffffffffffffffffffffffffffffff1603612007575f6040517f64a0ae92000000000000000000000000000000000000000000000000000000008152600401611ffe91906123fe565b60405180910390fd5b5f61201383835f611014565b90505f73ffffffffffffffffffffffffffffffffffffffff168173ffffffffffffffffffffffffffffffffffffffff1614612085575f6040517f73c6ac6e00000000000000000000000000000000000000000000000000000000815260040161207c91906123fe565b60405180910390fd5b505050565b61209583838361214d565b612148575f73ffffffffffffffffffffffffffffffffffffffff168373ffffffffffffffffffffffffffffffffffffffff160361210957806040517f7e2732890000000000000000000000000000000000000000000000000000000081526004016121009190612514565b60405180910390fd5b81816040517f177e802f00000000000000000000000000000000000000000000000000000000815260040161213f92919061299e565b60405180910390fd5b505050565b5f5f73ffffffffffffffffffffffffffffffffffffffff168373ffffffffffffffffffffffffffffffffffffffff161415801561220457508273ffffffffffffffffffffffffffffffffffffffff168473ffffffffffffffffffffffffffffffffffffffff1614806121c557506121c48484610ca5565b5b8061220357508273ffffffffffffffffffffffffffffffffffffffff166121eb83610f1e565b73ffffffffffffffffffffffffffffffffffffffff16145b5b90509392505050565b5f604051905090565b5f5ffd5b5f5ffd5b5f7fffffffff0000000000000000000000000000000000000000000000000000000082169050919050565b6122528161221e565b811461225c575f5ffd5b50565b5f8135905061226d81612249565b92915050565b5f6020828403121561228857612287612216565b5b5f6122958482850161225f565b91505092915050565b5f8115159050919050565b6122b28161229e565b82525050565b5f6020820190506122cb5f8301846122a9565b92915050565b5f81519050919050565b5f82825260208201905092915050565b8281835e5f83830152505050565b5f601f19601f8301169050919050565b5f612313826122d1565b61231d81856122db565b935061232d8185602086016122eb565b612336816122f9565b840191505092915050565b5f6020820190508181035f8301526123598184612309565b905092915050565b5f819050919050565b61237381612361565b811461237d575f5ffd5b50565b5f8135905061238e8161236a565b92915050565b5f602082840312156123a9576123a8612216565b5b5f6123b684828501612380565b91505092915050565b5f73ffffffffffffffffffffffffffffffffffffffff82169050919050565b5f6123e8826123bf565b9050919050565b6123f8816123de565b82525050565b5f6020820190506124115f8301846123ef565b92915050565b612420816123de565b811461242a575f5ffd5b50565b5f8135905061243b81612417565b92915050565b5f5f6040838503121561245757612456612216565b5b5f6124648582860161242d565b925050602061247585828601612380565b9150509250929050565b5f60ff82169050919050565b6124948161247f565b811461249e575f5ffd5b50565b5f813590506124af8161248b565b92915050565b5f5f5f606084860312156124cc576124cb612216565b5b5f6124d98682870161242d565b93505060206124ea86828701612380565b92505060406124fb868287016124a1565b9150509250925092565b61250e81612361565b82525050565b5f6020820190506125275f830184612505565b92915050565b5f5f5f6060848603121561254457612543612216565b5b5f6125518682870161242d565b93505060206125628682870161242d565b925050604061257386828701612380565b9150509250925092565b6125868161247f565b82525050565b5f60408201905061259f5f830185612505565b6125ac602083018461257d565b9392505050565b5f602082840312156125c8576125c7612216565b5b5f6125d58482850161242d565b91505092915050565b6125e78161229e565b81146125f1575f5ffd5b50565b5f81359050612602816125de565b92915050565b5f5f6040838503121561261e5761261d612216565b5b5f61262b8582860161242d565b925050602061263c858286016125f4565b9150509250929050565b5f5ffd5b5f5ffd5b7f4e487b71000000000000000000000000000000000000000000000000000000005f52604160045260245ffd5b612684826122f9565b810181811067ffffffffffffffff821117156126a3576126a261264e565b5b80604052505050565b5f6126b561220d565b90506126c1828261267b565b919050565b5f67ffffffffffffffff8211156126e0576126df61264e565b5b6126e9826122f9565b9050602081019050919050565b828183375f83830152505050565b5f612716612711846126c6565b6126ac565b9050828152602081018484840111156127325761273161264a565b5b61273d8482856126f6565b509392505050565b5f82601f83011261275957612758612646565b5b8135612769848260208601612704565b91505092915050565b5f5f5f5f6080858703121561278a57612789612216565b5b5f6127978782880161242d565b94505060206127a88782880161242d565b93505060406127b987828801612380565b925050606085013567ffffffffffffffff8111156127da576127d961221a565b5b6127e687828801612745565b91505092959194509250565b5f5f6040838503121561280857612807612216565b5b5f6128158582860161242d565b92505060206128268582860161242d565b9150509250929050565b7f4e487b71000000000000000000000000000000000000000000000000000000005f52602260045260245ffd5b5f600282049050600182168061287457607f821691505b60208210810361288757612886612830565b5b50919050565b7f4e487b71000000000000000000000000000000000000000000000000000000005f52601160045260245ffd5b5f6128c482612361565b91507fffffffffffffffffffffffffffffffffffffffffffffffffffffffffffffffff82036128f6576128f561288d565b5b600182019050919050565b5f6060820190506129145f8301866123ef565b6129216020830185612505565b61292e60408301846123ef565b949350505050565b7f546f6b656e20646f6573206e6f742065786973740000000000000000000000005f82015250565b5f61296a6014836122db565b915061297582612936565b602082019050919050565b5f6020820190508181035f8301526129978161295e565b9050919050565b5f6040820190506129b15f8301856123ef565b6129be6020830184612505565b9392505050565b7f4e487b71000000000000000000000000000000000000000000000000000000005f52603260045260245ffd5b5f81905092915050565b7f7b226e616d65223a22536561736f6e20000000000000000000000000000000005f82015250565b5f612a306010836129f2565b9150612a3b826129fc565b601082019050919050565b5f612a50826122d1565b612a5a81856129f2565b9350612a6a8185602086016122eb565b80840191505092915050565b7f2054726f70687920e280942000000000000000000000000000000000000000005f82015250565b5f612aaa600c836129f2565b9150612ab582612a76565b600c82019050919050565b7f20506c616365222c226465736372697074696f6e223a224177617264656420745f8201527f6f20746865200000000000000000000000000000000000000000000000000000602082015250565b5f612b1a6026836129f2565b9150612b2582612ac0565b602682019050919050565b7f2d706c616365206669676874657220696e204d4f4e46495420525047205365615f8201527f736f6e2000000000000000000000000000000000000000000000000000000000602082015250565b5f612b8a6024836129f2565b9150612b9582612b30565b602482019050919050565b7f2e222c2261747472696275746573223a5b7b2274726169745f74797065223a225f8201527f536561736f6e222c2276616c7565223a00000000000000000000000000000000602082015250565b5f612bfa6030836129f2565b9150612c0582612ba0565b603082019050919050565b7f7d2c7b2274726169745f74797065223a2252616e6b222c2276616c7565223a005f82015250565b5f612c44601f836129f2565b9150612c4f82612c10565b601f82019050919050565b7f7d5d7d00000000000000000000000000000000000000000000000000000000005f82015250565b5f612c8e6003836129f2565b9150612c9982612c5a565b600382019050919050565b5f612cae82612a24565b9150612cba828b612a46565b9150612cc582612a9e565b9150612cd1828a612a46565b9150612cdd8289612a46565b9150612ce882612b0e565b9150612cf48288612a46565b9150612d008287612a46565b9150612d0b82612b7e565b9150612d178286612a46565b9150612d2282612bee565b9150612d2e8285612a46565b9150612d3982612c38565b9150612d458284612a46565b9150612d5082612c82565b91508190509998505050505050505050565b7f646174613a6170706c69636174696f6e2f6a736f6e3b757466382c00000000005f82015250565b5f612d96601b836129f2565b9150612da182612d62565b601b82019050919050565b5f612db682612d8a565b9150612dc28284612a46565b915081905092915050565b5f81519050919050565b5f82825260208201905092915050565b5f612df182612dcd565b612dfb8185612dd7565b9350612e0b8185602086016122eb565b612e14816122f9565b840191505092915050565b5f608082019050612e325f8301876123ef565b612e3f60208301866123ef565b612e4c6040830185612505565b8181036060830152612e5e8184612de7565b905095945050505050565b5f81519050612e7781612249565b92915050565b5f60208284031215612e9257612e91612216565b5b5f612e9f84828501612e69565b91505092915050565b7f4e487b71000000000000000000000000000000000000000000000000000000005f52601260045260245ffd5b5f612edf82612361565b9150612eea83612361565b9250828203905081811115612f0257612f0161288d565b5b92915050565b7f4e487b71000000000000000000000000000000000000000000000000000000005f52603160045260245ffdfea264697066735822122009edf4a1ffacbfb08f9ae436e63829abaf7b1afa1eeab161cdf048e4e4dfbe3364736f6c634300081c0033","linkReferences":{}},"methodIdentifiers":{"approve(address,uint256)":"095ea7b3","balanceOf(address)":"70a08231","getApproved(uint256)":"081812fc","getTrophyData(uint256)":"286a73ea","isApprovedForAll(address,address)":"e985e9c5","mintTrophy(address,uint256,uint8)":"1307d50b","name()":"06fdde03","owner()":"8da5cb5b","ownerOf(uint256)":"6352211e","renounceOwnership()":"715018a6","safeTransferFrom(address,address,uint256)":"42842e0e","safeTransferFrom(address,address,uint256,bytes)":"b88d4fde","setApprovalForAll(address,bool)":"a22cb465","supportsInterface(bytes4)":"01ffc9a7","symbol()":"95d89b41","tokenByIndex(uint256)":"4f6ccce7","tokenOfOwnerByIndex(address,uint256)":"2f745c59","tokenURI(uint256)":"c87b56dd","totalSupply()":"18160ddd","transferFrom(address,address,uint256)":"23b872dd","transferOwnership(address)":"f2fde38b"},"id":34}