{"abi":[{"type":"constructor","inputs":[{"name":"initialOwner","type":"address","internalType":"address"}],"stateMutability":"nonpayable"},{"type":"function","name":"MAX_BADGE_TYPE","inputs":[],"outputs":[{"name":"","type":"uint8","internalType":"uint8"}],"stateMutability":"view"},{"type":"function","name":"approve","inputs":[{"name":"to","type":"address","internalType":"address"},{"name":"tokenId","type":"uint256","internalType":"uint256"}],"outputs":[],"stateMutability":"nonpayable"},{"type":"function","name":"badgeTypeOf","inputs":[{"name":"","type":"uint256","internalType":"uint256"}],"outputs":[{"name":"","type":"uint8","internalType":"uint8"}],"stateMutability":"view"},{"type":"function","name":"balanceOf","inputs":[{"name":"owner","type":"address","internalType":"address"}],"outputs":[{"name":"","type":"uint256","internalType":"uint256"}],"stateMutability":"view"},{"type":"function","name":"getApproved","inputs":[{"name":"tokenId","type":"uint256","internalType":"uint256"}],"outputs":[{"name":"","type":"address","internalType":"address"}],"stateMutability":"view"},{"type":"function","name":"hasMinted","inputs":[{"name":"","type":"address","internalType":"address"},{"name":"","type":"uint8","internalType":"uint8"}],"outputs":[{"name":"","type":"bool","internalType":"bool"}],"stateMutability":"view"},{"type":"function","name":"isApprovedForAll","inputs":[{"name":"owner","type":"address","internalType":"address"},{"name":"operator","type":"address","internalType":"address"}],"outputs":[{"name":"","type":"bool","internalType":"bool"}],"stateMutability":"view"},{"type":"function","name":"mintBadge","inputs":[{"name":"player","type":"address","internalType":"address"},{"name":"badgeType","type":"uint8","internalType":"uint8"}],"outputs":[{"name":"tokenId","type":"uint256","internalType":"uint256"}],"stateMutability":"nonpayable"},{"type":"function","name":"name","inputs":[],"outputs":[{"name":"","type":"string","internalType":"string"}],"stateMutability":"view"},{"type":"function","name":"owner","inputs":[],"outputs":[{"name":"","type":"address","internalType":"address"}],"stateMutability":"view"},{"type":"function","name":"ownerOf","inputs":[{"name":"tokenId","type":"uint256","internalType":"uint256"}],"outputs":[{"name":"","type":"address","internalType":"address"}],"stateMutability":"view"},{"type":"function","name":"renounceOwnership","inputs":[],"outputs":[],"stateMutability":"nonpayable"},{"type":"function","name":"safeTransferFrom","inputs":[{"name":"from","type":"address","internalType":"address"},{"name":"to","type":"address","internalType":"address"},{"name":"tokenId","type":"uint256","internalType":"uint256"}],"outputs":[],"stateMutability":"nonpayable"},{"type":"function","name":"safeTransferFrom","inputs":[{"name":"from","type":"address","internalType":"address"},{"name":"to","type":"address","internalType":"address"},{"name":"tokenId","type":"uint256","internalType":"uint256"},{"name":"data","type":"bytes","internalType":"bytes"}],"outputs":[],"stateMutability":"nonpayable"},{"type":"function","name":"setApprovalForAll","inputs":[{"name":"operator","type":"address","internalType":"address"},{"name":"approved","type":"bool","internalType":"bool"}],"outputs":[],"stateMutability":"nonpayable"},{"type":"function","name":"supportsInterface","inputs":[{"name":"interfaceId","type":"bytes4","internalType":"bytes4"}],"outputs":[{"name":"","type":"bool","internalType":"bool"}],"stateMutability":"view"},{"type":"function","name":"symbol","inputs":[],"outputs":[{"name":"","type":"string","internalType":"string"}],"stateMutability":"view"},{"type":"function","name":"tokenURI","inputs":[{"name":"tokenId","type":"uint256","internalType":"uint256"}],"outputs":[{"name":"","type":"string","internalType":"string"}],"stateMutability":"view"},{"type":"function","name":"transferFrom","inputs":[{"name":"from","type":"address","internalType":"address"},{"name":"to","type":"address","internalType":"address"},{"name":"tokenId","type":"uint256","internalType":"uint256"}],"outputs":[],"stateMutability":"nonpayable"},{"type":"function","name":"transferOwnership","inputs":[{"name":"newOwner","type":"address","internalType":"address"}],"outputs":[],"stateMutability":"nonpayable"},{"type":"event","name":"Approval","inputs":[{"name":"owner","type":"address","indexed":true,"internalType":"address"},{"name":"approved","type":"address","indexed":true,"internalType":"address"},{"name":"tokenId","type":"uint256","indexed":true,"internalType":"uint256"}],"anonymous":false},{"type":"event","name":"ApprovalForAll","inputs":[{"name":"owner","type":"address","indexed":true,"internalType":"address"},{"name":"operator","type":"address","indexed":true,"internalType":"address"},{"name":"approved","type":"bool","indexed":false,"internalType":"bool"}],"anonymous":false},{"type":"event","name":"BadgeMinted","inputs":[{"name":"player","type":"address","indexed":true,"internalType":"address"},{"name":"tokenId","type":"uint256","indexed":true,"internalType":"uint256"},{"name":"badgeType","type":"uint8","indexed":true,"internalType":"uint8"}],"anonymous":false},{"type":"event","name":"OwnershipTransferred","inputs":[{"name":"previousOwner","type":"address","indexed":true,"internalType":"address"},{"name":"newOwner","type":"address","indexed":true,"internalType":"address"}],"anonymous":false},{"type":"event","name":"Transfer","inputs":[{"name":"from","type":"address","indexed":true,"internalType":"address"},{"name":"to","type":"address","indexed":true,"internalType":"address"},{"name":"tokenId","type":"uint256","indexed":true,"internalType":"uint256"}],"anonymous":false},{"type":"error","name":"ERC721IncorrectOwner","inputs":[{"name":"sender","type":"address","internalType":"address"},{"name":"tokenId","type":"uint256","internalType":"uint256"},{"name":"owner","type":"address","internalType":"address"}]},{"type":"error","name":"ERC721InsufficientApproval","inputs":[{"name":"operator","type":"address","internalType":"address"},{"name":"tokenId","type":"uint256","internalType":"uint256"}]},{"type":"error","name":"ERC721InvalidApprover","inputs":[{"name":"approver","type":"address","internalType":"address"}]},{"type":"error","name":"ERC721InvalidOperator","inputs":[{"name":"operator","type":"address","internalType":"address"}]},{"type":"error","name":"ERC721InvalidOwner","inputs":[{"name":"owner","type":"address","internalType":"address"}]},{"type":"error","name":"ERC721InvalidReceiver","inputs":[{"name":"receiver","type":"address","internalType":"address"}]},{"type":"error","name":"ERC721InvalidSender","inputs":[{"name":"sender","type":"address","internalType":"address"}]},{"type":"error","name":"ERC721NonexistentToken","inputs":[{"name":"tokenId","type":"uint256","internalType":"uint256"}]},{"type":"error","name":"OwnableInvalidOwner","inputs":[{"name":"owner","type":"address","internalType":"address"}]},{"type":"error","name":"OwnableUnauthorizedAccount","inputs":[{"name":"account","type":"address","internalType":"address"}]}],"bytecode":{"object":"0x608060405234801561000f575f5ffd5b50604051612ab4380380612ab483398181016040528101906100319190610266565b806040518060400160405280601081526020017f416368696576656d656e744261646765000000000000000000000000000000008152506040518060400160405280600681526020017f4d42414447450000000000000000000000000000000000000000000000000000815250815f90816100ac91906104ce565b5080600190816100bc91906104ce565b5050505f73ffffffffffffffffffffffffffffffffffffffff168173ffffffffffffffffffffffffffffffffffffffff160361012f575f6040517f1e4fbdf700000000000000000000000000000000000000000000000000000000815260040161012691906105ac565b60405180910390fd5b61013e8161014560201b60201c565b50506105c5565b5f60065f9054906101000a900473ffffffffffffffffffffffffffffffffffffffff1690508160065f6101000a81548173ffffffffffffffffffffffffffffffffffffffff021916908373ffffffffffffffffffffffffffffffffffffffff1602179055508173ffffffffffffffffffffffffffffffffffffffff168173ffffffffffffffffffffffffffffffffffffffff167f8be0079c531659141344cd1fd0a4f28419497f9722a3daafe3b4186f6b6457e060405160405180910390a35050565b5f5ffd5b5f73ffffffffffffffffffffffffffffffffffffffff82169050919050565b5f6102358261020c565b9050919050565b6102458161022b565b811461024f575f5ffd5b50565b5f815190506102608161023c565b92915050565b5f6020828403121561027b5761027a610208565b5b5f61028884828501610252565b91505092915050565b5f81519050919050565b7f4e487b71000000000000000000000000000000000000000000000000000000005f52604160045260245ffd5b7f4e487b71000000000000000000000000000000000000000000000000000000005f52602260045260245ffd5b5f600282049050600182168061030c57607f821691505b60208210810361031f5761031e6102c8565b5b50919050565b5f819050815f5260205f209050919050565b5f6020601f8301049050919050565b5f82821b905092915050565b5f600883026103817fffffffffffffffffffffffffffffffffffffffffffffffffffffffffffffffff82610346565b61038b8683610346565b95508019841693508086168417925050509392505050565b5f819050919050565b5f819050919050565b5f6103cf6103ca6103c5846103a3565b6103ac565b6103a3565b9050919050565b5f819050919050565b6103e8836103b5565b6103fc6103f4826103d6565b848454610352565b825550505050565b5f5f905090565b610413610404565b61041e8184846103df565b505050565b5b81811015610441576104365f8261040b565b600181019050610424565b5050565b601f8211156104865761045781610325565b61046084610337565b8101602085101561046f578190505b61048361047b85610337565b830182610423565b50505b505050565b5f82821c905092915050565b5f6104a65f198460080261048b565b1980831691505092915050565b5f6104be8383610497565b9150826002028217905092915050565b6104d782610291565b67ffffffffffffffff8111156104f0576104ef61029b565b5b6104fa82546102f5565b610505828285610445565b5f60209050601f831160018114610536575f8415610524578287015190505b61052e85826104b3565b865550610595565b601f19841661054486610325565b5f5b8281101561056b57848901518255600182019150602085019450602081019050610546565b868310156105885784890151610584601f891682610497565b8355505b6001600288020188555050505b505050505050565b6105a68161022b565b82525050565b5f6020820190506105bf5f83018461059d565b92915050565b6124e2806105d25f395ff3fe608060405234801561000f575f5ffd5b506004361061012a575f3560e01c8063715018a6116100ab578063b88d4fde1161006f578063b88d4fde14610340578063c87b56dd1461035c578063e985e9c51461038c578063f2fde38b146103bc578063ff97f660146103d85761012a565b8063715018a6146102ae5780638da5cb5b146102b857806395d89b41146102d6578063a22cb465146102f4578063aa131a69146103105761012a565b8063160c3784116100f2578063160c3784146101f857806323b872dd1461021657806342842e0e146102325780636352211e1461024e57806370a082311461027e5761012a565b806301ffc9a71461012e578063041ce13f1461015e57806306fdde031461018e578063081812fc146101ac578063095ea7b3146101dc575b5f5ffd5b61014860048036038101906101439190611bad565b610408565b6040516101559190611bf2565b60405180910390f35b61017860048036038101906101739190611c3e565b6104e9565b6040516101859190611c84565b60405180910390f35b610196610506565b6040516101a39190611d0d565b60405180910390f35b6101c660048036038101906101c19190611c3e565b610595565b6040516101d39190611d6c565b60405180910390f35b6101f660048036038101906101f19190611daf565b6105b0565b005b6102006105c6565b60405161020d9190611c84565b60405180910390f35b610230600480360381019061022b9190611ded565b6105cb565b005b61024c60048036038101906102479190611ded565b6106ca565b005b61026860048036038101906102639190611c3e565b6106e9565b6040516102759190611d6c565b60405180910390f35b61029860048036038101906102939190611e3d565b6106fa565b6040516102a59190611e77565b60405180910390f35b6102b66107b0565b005b6102c06107c3565b6040516102cd9190611d6c565b60405180910390f35b6102de6107eb565b6040516102eb9190611d0d565b60405180910390f35b61030e60048036038101906103099190611eba565b61087b565b005b61032a60048036038101906103259190611f22565b610891565b6040516103379190611e77565b60405180910390f35b61035a6004803603810190610355919061208c565b610a86565b005b61037660048036038101906103719190611c3e565b610aab565b6040516103839190611d0d565b60405180910390f35b6103a660048036038101906103a1919061210c565b610b11565b6040516103b39190611bf2565b60405180910390f35b6103d660048036038101906103d19190611e3d565b610b9f565b005b6103f260048036038101906103ed9190611f22565b610c23565b6040516103ff9190611bf2565b60405180910390f35b5f7f80ac58cd000000000000000000000000000000000000000000000000000000007bffffffffffffffffffffffffffffffffffffffffffffffffffffffff1916827bffffffffffffffffffffffffffffffffffffffffffffffffffffffff191614806104d257507f5b5e139f000000000000000000000000000000000000000000000000000000007bffffffffffffffffffffffffffffffffffffffffffffffffffffffff1916827bffffffffffffffffffffffffffffffffffffffffffffffffffffffff1916145b806104e257506104e182610c4d565b5b9050919050565b6008602052805f5260405f205f915054906101000a900460ff1681565b60605f805461051490612177565b80601f016020809104026020016040519081016040528092919081815260200182805461054090612177565b801561058b5780601f106105625761010080835404028352916020019161058b565b820191905f5260205f20905b81548152906001019060200180831161056e57829003601f168201915b5050505050905090565b5f61059f82610cb6565b506105a982610d3c565b9050919050565b6105c282826105bd610d75565b610d7c565b5050565b600281565b5f73ffffffffffffffffffffffffffffffffffffffff168273ffffffffffffffffffffffffffffffffffffffff160361063b575f6040517f64a0ae920000000000000000000000000000000000000000000000000000000081526004016106329190611d6c565b60405180910390fd5b5f61064e8383610649610d75565b610d8e565b90508373ffffffffffffffffffffffffffffffffffffffff168173ffffffffffffffffffffffffffffffffffffffff16146106c4578382826040517f64283d7b0000000000000000000000000000000000000000000000000000000081526004016106bb939291906121a7565b60405180910390fd5b50505050565b6106e483838360405180602001604052805f815250610a86565b505050565b5f6106f382610cb6565b9050919050565b5f5f73ffffffffffffffffffffffffffffffffffffffff168273ffffffffffffffffffffffffffffffffffffffff160361076b575f6040517f89c62b640000000000000000000000000000000000000000000000000000000081526004016107629190611d6c565b60405180910390fd5b60035f8373ffffffffffffffffffffffffffffffffffffffff1673ffffffffffffffffffffffffffffffffffffffff1681526020019081526020015f20549050919050565b6107b8610f99565b6107c15f611020565b565b5f60065f9054906101000a900473ffffffffffffffffffffffffffffffffffffffff16905090565b6060600180546107fa90612177565b80601f016020809104026020016040519081016040528092919081815260200182805461082690612177565b80156108715780601f1061084857610100808354040283529160200191610871565b820191905f5260205f20905b81548152906001019060200180831161085457829003601f168201915b5050505050905090565b61088d610886610d75565b83836110e3565b5050565b5f61089a610f99565b600260ff168260ff1611156108e4576040517f08c379a00000000000000000000000000000000000000000000000000000000081526004016108db90612226565b60405180910390fd5b60075f8473ffffffffffffffffffffffffffffffffffffffff1673ffffffffffffffffffffffffffffffffffffffff1681526020019081526020015f205f8360ff1660ff1681526020019081526020015f205f9054906101000a900460ff1615610983576040517f08c379a000000000000000000000000000000000000000000000000000000000815260040161097a9061228e565b60405180910390fd5b60095f815480929190610995906122d9565b9190505590506109a583826112bc565b8160085f8381526020019081526020015f205f6101000a81548160ff021916908360ff160217905550600160075f8573ffffffffffffffffffffffffffffffffffffffff1673ffffffffffffffffffffffffffffffffffffffff1681526020019081526020015f205f8460ff1660ff1681526020019081526020015f205f6101000a81548160ff0219169083151502179055508160ff16818473ffffffffffffffffffffffffffffffffffffffff167f6e79522d33e3590933a0f11623ebc984abab3d341dd3e9b88e4e2503b15d9ab660405160405180910390a492915050565b610a918484846105cb565b610aa5610a9c610d75565b858585856112d9565b50505050565b6060610ab682610cb6565b505f610ac0611485565b90505f815111610ade5760405180602001604052805f815250610b09565b80610ae88461149b565b604051602001610af992919061235a565b6040516020818303038152906040525b915050919050565b5f60055f8473ffffffffffffffffffffffffffffffffffffffff1673ffffffffffffffffffffffffffffffffffffffff1681526020019081526020015f205f8373ffffffffffffffffffffffffffffffffffffffff1673ffffffffffffffffffffffffffffffffffffffff1681526020019081526020015f205f9054906101000a900460ff16905092915050565b610ba7610f99565b5f73ffffffffffffffffffffffffffffffffffffffff168173ffffffffffffffffffffffffffffffffffffffff1603610c17575f6040517f1e4fbdf7000000000000000000000000000000000000000000000000000000008152600401610c0e9190611d6c565b60405180910390fd5b610c2081611020565b50565b6007602052815f5260405f20602052805f5260405f205f915091509054906101000a900460ff1681565b5f7f01ffc9a7000000000000000000000000000000000000000000000000000000007bffffffffffffffffffffffffffffffffffffffffffffffffffffffff1916827bffffffffffffffffffffffffffffffffffffffffffffffffffffffff1916149050919050565b5f5f610cc183611565565b90505f73ffffffffffffffffffffffffffffffffffffffff168173ffffffffffffffffffffffffffffffffffffffff1603610d3357826040517f7e273289000000000000000000000000000000000000000000000000000000008152600401610d2a9190611e77565b60405180910390fd5b80915050919050565b5f60045f8381526020019081526020015f205f9054906101000a900473ffffffffffffffffffffffffffffffffffffffff169050919050565b5f33905090565b610d89838383600161159e565b505050565b5f5f610d9984611565565b90505f73ffffffffffffffffffffffffffffffffffffffff168373ffffffffffffffffffffffffffffffffffffffff1614610dda57610dd981848661175d565b5b5f73ffffffffffffffffffffffffffffffffffffffff168173ffffffffffffffffffffffffffffffffffffffff1614610e6557610e195f855f5f61159e565b600160035f8373ffffffffffffffffffffffffffffffffffffffff1673ffffffffffffffffffffffffffffffffffffffff1681526020019081526020015f205f82825403925050819055505b5f73ffffffffffffffffffffffffffffffffffffffff168573ffffffffffffffffffffffffffffffffffffffff1614610ee457600160035f8773ffffffffffffffffffffffffffffffffffffffff1673ffffffffffffffffffffffffffffffffffffffff1681526020019081526020015f205f82825401925050819055505b8460025f8681526020019081526020015f205f6101000a81548173ffffffffffffffffffffffffffffffffffffffff021916908373ffffffffffffffffffffffffffffffffffffffff160217905550838573ffffffffffffffffffffffffffffffffffffffff168273ffffffffffffffffffffffffffffffffffffffff167fddf252ad1be2c89b69c2b068fc378daa952ba7f163c4a11628f55a4df523b3ef60405160405180910390a4809150509392505050565b610fa1610d75565b73ffffffffffffffffffffffffffffffffffffffff16610fbf6107c3565b73ffffffffffffffffffffffffffffffffffffffff161461101e57610fe2610d75565b6040517f118cdaa70000000000000000000000000000000000000000000000000000000081526004016110159190611d6c565b60405180910390fd5b565b5f60065f9054906101000a900473ffffffffffffffffffffffffffffffffffffffff1690508160065f6101000a81548173ffffffffffffffffffffffffffffffffffffffff021916908373ffffffffffffffffffffffffffffffffffffffff1602179055508173ffffffffffffffffffffffffffffffffffffffff168173ffffffffffffffffffffffffffffffffffffffff167f8be0079c531659141344cd1fd0a4f28419497f9722a3daafe3b4186f6b6457e060405160405180910390a35050565b5f73ffffffffffffffffffffffffffffffffffffffff168373ffffffffffffffffffffffffffffffffffffffff1603611153575f6040517fa9fbf51f00000000000000000000000000000000000000000000000000000000815260040161114a9190611d6c565b60405180910390fd5b5f73ffffffffffffffffffffffffffffffffffffffff168273ffffffffffffffffffffffffffffffffffffffff16036111c357816040517f5b08ba180000000000000000000000000000000000000000000000000000000081526004016111ba9190611d6c565b60405180910390fd5b8060055f8573ffffffffffffffffffffffffffffffffffffffff1673ffffffffffffffffffffffffffffffffffffffff1681526020019081526020015f205f8473ffffffffffffffffffffffffffffffffffffffff1673ffffffffffffffffffffffffffffffffffffffff1681526020019081526020015f205f6101000a81548160ff0219169083151502179055508173ffffffffffffffffffffffffffffffffffffffff168373ffffffffffffffffffffffffffffffffffffffff167f17307eab39ab6107e8899845ad3d59bd9653f200f220920489ca2b5937696c31836040516112af9190611bf2565b60405180910390a3505050565b6112d5828260405180602001604052805f815250611820565b5050565b5f8373ffffffffffffffffffffffffffffffffffffffff163b111561147e578273ffffffffffffffffffffffffffffffffffffffff1663150b7a02868685856040518563ffffffff1660e01b815260040161133794939291906123cf565b6020604051808303815f875af192505050801561137257506040513d601f19601f8201168201806040525081019061136f919061242d565b60015b6113f3573d805f81146113a0576040519150601f19603f3d011682016040523d82523d5f602084013e6113a5565b606091505b505f8151036113eb57836040517f64a0ae920000000000000000000000000000000000000000000000000000000081526004016113e29190611d6c565b60405180910390fd5b805160208201fd5b63150b7a0260e01b7bffffffffffffffffffffffffffffffffffffffffffffffffffffffff1916817bffffffffffffffffffffffffffffffffffffffffffffffffffffffff19161461147c57836040517f64a0ae920000000000000000000000000000000000000000000000000000000081526004016114739190611d6c565b60405180910390fd5b505b5050505050565b606060405180602001604052805f815250905090565b60605f60016114a984611843565b0190505f8167ffffffffffffffff8111156114c7576114c6611f68565b5b6040519080825280601f01601f1916602001820160405280156114f95781602001600182028036833780820191505090505b5090505f82602083010190505b60011561155a578080600190039150507f3031323334353637383961626364656600000000000000000000000000000000600a86061a8153600a858161154f5761154e612458565b5b0494505f8503611506575b819350505050919050565b5f60025f8381526020019081526020015f205f9054906101000a900473ffffffffffffffffffffffffffffffffffffffff169050919050565b80806115d657505f73ffffffffffffffffffffffffffffffffffffffff168273ffffffffffffffffffffffffffffffffffffffff1614155b15611708575f6115e584610cb6565b90505f73ffffffffffffffffffffffffffffffffffffffff168373ffffffffffffffffffffffffffffffffffffffff161415801561164f57508273ffffffffffffffffffffffffffffffffffffffff168173ffffffffffffffffffffffffffffffffffffffff1614155b801561166257506116608184610b11565b155b156116a457826040517fa9fbf51f00000000000000000000000000000000000000000000000000000000815260040161169b9190611d6c565b60405180910390fd5b811561170657838573ffffffffffffffffffffffffffffffffffffffff168273ffffffffffffffffffffffffffffffffffffffff167f8c5be1e5ebec7d5bd14f71427d1e84f3dd0314c0f7b2291e5b200ac8c7c3b92560405160405180910390a45b505b8360045f8581526020019081526020015f205f6101000a81548173ffffffffffffffffffffffffffffffffffffffff021916908373ffffffffffffffffffffffffffffffffffffffff16021790555050505050565b611768838383611994565b61181b575f73ffffffffffffffffffffffffffffffffffffffff168373ffffffffffffffffffffffffffffffffffffffff16036117dc57806040517f7e2732890000000000000000000000000000000000000000000000000000000081526004016117d39190611e77565b60405180910390fd5b81816040517f177e802f000000000000000000000000000000000000000000000000000000008152600401611812929190612485565b60405180910390fd5b505050565b61182a8383611a54565b61183e611835610d75565b5f8585856112d9565b505050565b5f5f5f90507a184f03e93ff9f4daa797ed6e38ed64bf6a1f010000000000000000831061189f577a184f03e93ff9f4daa797ed6e38ed64bf6a1f010000000000000000838161189557611894612458565b5b0492506040810190505b6d04ee2d6d415b85acef810000000083106118dc576d04ee2d6d415b85acef810000000083816118d2576118d1612458565b5b0492506020810190505b662386f26fc10000831061190b57662386f26fc10000838161190157611900612458565b5b0492506010810190505b6305f5e1008310611934576305f5e100838161192a57611929612458565b5b0492506008810190505b612710831061195957612710838161194f5761194e612458565b5b0492506004810190505b6064831061197c576064838161197257611971612458565b5b0492506002810190505b600a831061198b576001810190505b80915050919050565b5f5f73ffffffffffffffffffffffffffffffffffffffff168373ffffffffffffffffffffffffffffffffffffffff1614158015611a4b57508273ffffffffffffffffffffffffffffffffffffffff168473ffffffffffffffffffffffffffffffffffffffff161480611a0c5750611a0b8484610b11565b5b80611a4a57508273ffffffffffffffffffffffffffffffffffffffff16611a3283610d3c565b73ffffffffffffffffffffffffffffffffffffffff16145b5b90509392505050565b5f73ffffffffffffffffffffffffffffffffffffffff168273ffffffffffffffffffffffffffffffffffffffff1603611ac4575f6040517f64a0ae92000000000000000000000000000000000000000000000000000000008152600401611abb9190611d6c565b60405180910390fd5b5f611ad083835f610d8e565b90505f73ffffffffffffffffffffffffffffffffffffffff168173ffffffffffffffffffffffffffffffffffffffff1614611b42575f6040517f73c6ac6e000000000000000000000000000000000000000000000000000000008152600401611b399190611d6c565b60405180910390fd5b505050565b5f604051905090565b5f5ffd5b5f5ffd5b5f7fffffffff0000000000000000000000000000000000000000000000000000000082169050919050565b611b8c81611b58565b8114611b96575f5ffd5b50565b5f81359050611ba781611b83565b92915050565b5f60208284031215611bc257611bc1611b50565b5b5f611bcf84828501611b99565b91505092915050565b5f8115159050919050565b611bec81611bd8565b82525050565b5f602082019050611c055f830184611be3565b92915050565b5f819050919050565b611c1d81611c0b565b8114611c27575f5ffd5b50565b5f81359050611c3881611c14565b92915050565b5f60208284031215611c5357611c52611b50565b5b5f611c6084828501611c2a565b91505092915050565b5f60ff82169050919050565b611c7e81611c69565b82525050565b5f602082019050611c975f830184611c75565b92915050565b5f81519050919050565b5f82825260208201905092915050565b8281835e5f83830152505050565b5f601f19601f8301169050919050565b5f611cdf82611c9d565b611ce98185611ca7565b9350611cf9818560208601611cb7565b611d0281611cc5565b840191505092915050565b5f6020820190508181035f830152611d258184611cd5565b905092915050565b5f73ffffffffffffffffffffffffffffffffffffffff82169050919050565b5f611d5682611d2d565b9050919050565b611d6681611d4c565b82525050565b5f602082019050611d7f5f830184611d5d565b92915050565b611d8e81611d4c565b8114611d98575f5ffd5b50565b5f81359050611da981611d85565b92915050565b5f5f60408385031215611dc557611dc4611b50565b5b5f611dd285828601611d9b565b9250506020611de385828601611c2a565b9150509250929050565b5f5f5f60608486031215611e0457611e03611b50565b5b5f611e1186828701611d9b565b9350506020611e2286828701611d9b565b9250506040611e3386828701611c2a565b9150509250925092565b5f60208284031215611e5257611e51611b50565b5b5f611e5f84828501611d9b565b91505092915050565b611e7181611c0b565b82525050565b5f602082019050611e8a5f830184611e68565b92915050565b611e9981611bd8565b8114611ea3575f5ffd5b50565b5f81359050611eb481611e90565b92915050565b5f5f60408385031215611ed057611ecf611b50565b5b5f611edd85828601611d9b565b9250506020611eee85828601611ea6565b9150509250929050565b611f0181611c69565b8114611f0b575f5ffd5b50565b5f81359050611f1c81611ef8565b92915050565b5f5f60408385031215611f3857611f37611b50565b5b5f611f4585828601611d9b565b9250506020611f5685828601611f0e565b9150509250929050565b5f5ffd5b5f5ffd5b7f4e487b71000000000000000000000000000000000000000000000000000000005f52604160045260245ffd5b611f9e82611cc5565b810181811067ffffffffffffffff82111715611fbd57611fbc611f68565b5b80604052505050565b5f611fcf611b47565b9050611fdb8282611f95565b919050565b5f67ffffffffffffffff821115611ffa57611ff9611f68565b5b61200382611cc5565b9050602081019050919050565b828183375f83830152505050565b5f61203061202b84611fe0565b611fc6565b90508281526020810184848401111561204c5761204b611f64565b5b612057848285612010565b509392505050565b5f82601f83011261207357612072611f60565b5b813561208384826020860161201e565b91505092915050565b5f5f5f5f608085870312156120a4576120a3611b50565b5b5f6120b187828801611d9b565b94505060206120c287828801611d9b565b93505060406120d387828801611c2a565b925050606085013567ffffffffffffffff8111156120f4576120f3611b54565b5b6121008782880161205f565b91505092959194509250565b5f5f6040838503121561212257612121611b50565b5b5f61212f85828601611d9b565b925050602061214085828601611d9b565b9150509250929050565b7f4e487b71000000000000000000000000000000000000000000000000000000005f52602260045260245ffd5b5f600282049050600182168061218e57607f821691505b6020821081036121a1576121a061214a565b5b50919050565b5f6060820190506121ba5f830186611d5d565b6121c76020830185611e68565b6121d46040830184611d5d565b949350505050565b7f416368696576656d656e7442616467653a20696e76616c6964207479706500005f82015250565b5f612210601e83611ca7565b915061221b826121dc565b602082019050919050565b5f6020820190508181035f83015261223d81612204565b9050919050565b7f416368696576656d656e7442616467653a20616c7265616479206d696e7465645f82015250565b5f612278602083611ca7565b915061228382612244565b602082019050919050565b5f6020820190508181035f8301526122a58161226c565b9050919050565b7f4e487b71000000000000000000000000000000000000000000000000000000005f52601160045260245ffd5b5f6122e382611c0b565b91507fffffffffffffffffffffffffffffffffffffffffffffffffffffffffffffffff8203612315576123146122ac565b5b600182019050919050565b5f81905092915050565b5f61233482611c9d565b61233e8185612320565b935061234e818560208601611cb7565b80840191505092915050565b5f612365828561232a565b9150612371828461232a565b91508190509392505050565b5f81519050919050565b5f82825260208201905092915050565b5f6123a18261237d565b6123ab8185612387565b93506123bb818560208601611cb7565b6123c481611cc5565b840191505092915050565b5f6080820190506123e25f830187611d5d565b6123ef6020830186611d5d565b6123fc6040830185611e68565b818103606083015261240e8184612397565b905095945050505050565b5f8151905061242781611b83565b92915050565b5f6020828403121561244257612441611b50565b5b5f61244f84828501612419565b91505092915050565b7f4e487b71000000000000000000000000000000000000000000000000000000005f52601260045260245ffd5b5f6040820190506124985f830185611d5d565b6124a56020830184611e68565b939250505056fea26469706673582212207e2eb1744e936c7f67894fb370261324a7d65c394e7ef118cded548442a36d8e64736f6c634300081c0033","linkReferences":{}},"methodIdentifiers":{"MAX_BADGE_TYPE()":"160c3784","approve(address,uint256)":"095ea7b3","badgeTypeOf(uint256)":"041ce13f","balanceOf(address)":"70a08231","getApproved(uint256)":"081812fc","hasMinted(address,uint8)":"ff97f660","isApprovedForAll(address,address)":"e985e9c5","mintBadge(address,uint8)":"aa131a69","name()":"06fdde03","owner()":"8da5cb5b","ownerOf(uint256)":"6352211e","renounceOwnership()":"715018a6","safeTransferFrom(address,address,uint256)":"42842e0e","safeTransferFrom(address,address,uint256,bytes)":"b88d4fde","setApprovalForAll(address,bool)":"a22cb465","supportsInterface(bytes4)":"01ffc9a7","symbol()":"95d89b41","tokenURI(uint256)":"c87b56dd","transferFrom(address,address,uint256)":"23b872dd","transferOwnership(address)":"f2fde38b"},"id":35}